:1003070012088C1208DD12089D1208131208281211
:10031700000312064D1207A3D3E50E941EE50D94B4
:10032700004002807212088C12090C12089D1208F4
:100337002812000312064D1207A3D3E50E941EE5FB
:100347000D9400401A12087812089D1208DD120851
:100357009D12082812000312064D1207A3803812B7
:10036700088C1208F112089D1208281200031206C1
:100377004D1207A3D3E50E941EE50D9400401E12FF
:10038700086412089D1208DD12089D120828120041
:100397000312064D1207A312083C02031612088C1B
:1003A7001208DD12089D12085012089D12087812D3
:1003B700089D12082812000312064D1207A3020314
:0103C700161F
:1008280053890F438910E4F58BF58DC28FC28ED2A0
:04083800AFC2AB227E
:08000300D2A6120927C2A622B1
:10064D0030B3FDD28E20B3FDC28EAF8DEFFEAD8BDC
:10065D007C00E42DF509EC3EF508FCAD09E4120132
:10066D00D17B9A7A9979D9783F120026E4FBFA79F1
:10067D00C8784212012F12020A8E0D8F0EE4F58DED
:05068D00F58B020726B9
:10072600E4AE0DAF0EFC7D0A1202A48D0AAE0DAF2B
:100736000E7C007D0A1202A4EF75F00A8485F00B88
:0D074600AE0DAF0E7C007D641202A48F0C7E
:010753002283
:1007A300E50C9008D393FF1208B5E50B9008D3939B
:0E07B300FF1208BFE50A9008D393FF0208C9A1
:05092100007FE3DFFE92
:0109260022AE
:09000E00007F027EC7DEFEDFFC6C
:0100170022C6
:0908AB00007F047E92DEFEDFFCFA
:0108B4002221
:1007DE007E087D017CF300EFD394007480948040FA
:0A07EE0009DCFEDDFCDEFA1F80EDE1
:0107F80022DE
:0D089D00007F047E817D77DDFEDEFCDFFA4A
:0108AA00222B
:0808FB007F097EF4DEFEDFFC44
:0109030022D1
:05092700007F06DFFE69
:01092C0022A8
:0A08D300C0F9A4B0999282F8809059
:0A08B5008F80C2A01208ABD2A0226F
:0A08BF008F80C2A11208ABD2A12263
:0A08C9008F80C2A21208ABD2A22257
:100813005389F0438901758CFC758A18D28CD2A94F
:05082300D2AFC2B922B2
:03000B000206C723
:1006C700C0E0C0D0758CFC758A18E517C395165025
:1006D70006D2A5D2A48004C2A5C2A40517C3E517F4
:1006E7009414748094804003751700D0D0D0E03202
:10083C00751607C290D291C292D293D294C295D21D
:04084C0096C2972297
:10085000751607D290C291D292C293C294D295C219
:0408600096D2972273
:10086400751607C290D291C292D293C294D295C205
:0408740096D297225F
:10087800751607D290C291D292C293D294C295D2E1
:0408880096C297225B
:10088C00C290C291C292C293C294C295C296C297B0
:01089C002239
:06091A00011900011800A4
:0307F900E4F5190B
:1007FC0053890F438910758B33758DFEC28FD2AF21
:07080C00D2ABD28ED2BB2259
:03001B0002077D5C
:10077D00C0E0C0D0758B33758DFEE519C39518504B
:10078D0004D2A38002C2A30519E51964287002F5ED
:06079D0019D0D0D0E032BB
:07090C001207F97518012222
:070913001207F9751802221A
:0A08DD00E4F5191207FC7518032258
:0A08E700E4F5191207FC751804224D
:0A08F100E4F5191207FC7518052242
:1007540012081320B60620B50312083C30B6062052
:10076400B50312086420B60630B50312087830B613
:09077400E230B5DF12088C80DAD6
:10058900CAD5B5BDD6B8C1EEA3AC00C7B0BDF8A3F6
:10059900A100BAF3CDCBA3A100D7F3D7AAA3A10099
:1005A900D3D2D7AAA3A100CDA3A3A100BDF8C8EBBC
:1005B900BAECCDE2D1ADBCA3C4A3CABDA3A100BD11
:1005C900F8C8EBBAECCDE2B1DCD5CFC4A3CABDA360
:1005D900A100BDF8C8EBB3ACC9F9B2A8B1DCD5CF5D
:0705E900C4A3CABDA3A100D9
:1005F0001207C1120813E51A249FB4080050F7909F
:10060000060D75F003A4C58325F0C5837302062586
:1006100002062A02062F02063402063902063E02AC
:10062000064302064812083C80CC12085080C712CC
:10063000086480C212087880BD12088C80B8120746
:0D0640005480B312069280AE12030780A909
:1007C100759850E4F58753890F438920758DFD7520
:0D07D1008BFDD2BCD2AFC2ABD2ACD28E2217
:080904008F993099FDC2992280
:1006F70012028BFF600C120904740129F9E43AFA1B
:1007070080EEAB12AA13A91412028BFF6010120914
:0F0717000474012514F514E43513F51380E4225E
:030023000203C80D
:1003C800C0E0C0F0C083C082C0D075D000C001C0FA
:1003D80002C003C00730980585991AC298E51A2407
:1003E8009FB4080040030204769003FF75F003A44D
:1003F800C58325F0C5837302041702042202042D65
:1004080002043802044302044E02045902046475CB
:1004180012FF751305751494804B7512FF7513053B
:1004280075149B80407512FF7513057514A28035ED
:100438007512FF7513057514A9802A7512FF7513B7
:10044800057514B0801F7512FF7513057514B580F6
:10045800147512FF7513057514C880097512FF7598
:1004680013057514DB7BFF7A0579891206F7D00727
:10047800D003D002D001D0D0D082D083D0F0D0E049
:010488003241
:10051500E4F51520A71212000E20A70C751501C2CF
:10052500B27F011207DED2B220A61212000E20A65B
:100535000C751502C2B27F011207DED2B220A512D8
:1005450012000E20A50C751503C2B27F011207DE3D
:10055500D2B220A41212000E20A40C751504C2B24A
:100565007F011207DED2B2E51524FE600D14600D81
:1005750014600D2403700C0207540206920203074F
:030585001205F06C
:010588002250
:1006920012081312088C30B70630B40312083C203B
:1006A200B70F20B40C12085012089D1208641208E9
:1006B2009D30B70620B40312086420B7D930B4D6EF
:0506C20012087880D150
:10002600EC4D6011E8497017ED33EC3304600DE4D4
:10003600FCFFFEFD22E933E8330470F80202761273
:10004600024158046009E4CC248150062850090274
:10005600028028400302027DC0E0EB4A7044B9806A
:1000660006D0E0FB02026CEF4E701CBD8008EBFF71
:10007600EAFEE9FD80EBE98DF0A4FEE5F002010F52
:10008600E9CDF9EAFEEBFFEF89F0A4FCE5F0CE89B5
:10009600F0A42EFFE435F0CD89F0A42DFEE435F072
:1000A6008067EF4E7005BD80D780C3EF8BF0A4ACA0
:1000B600F0EE8BF0A42CFCE435F0F8EF8AF0A42CDB
:1000C600E5F038FCE433CB8DF0A42CFCE5F03BF8EE
:1000D600EE8AF0A42CFCE5F038F8E433CF89F0A4DE
:1000E6002CFCE5F038CF3400CE89F0A42FFFE5F0E4
:1000F6003EFEE433C98DF0A42EFEE5F039CD8AF03C
:10010600A42FFFE5F03EFEE43DFD33D0E0FB5007B3
:100116000BBB000F020280EC2CFCEF33FFEE33FE2C
:06012600ED33FD0202585A
:10012C00020280EC5D046005E8590470030202765B
:10013C00120241580460F6EC4860F2EC7004FDFECB
:10014C00FF22C860DB2481C85009C39860025006A6
:10015C0002027D9850CAF582E9294B4A7005AB82A0
:10016C0002026C75F0007C1A7880C3EF9BEE9AED5E
:10017C0099400DC3EF9BFFEE9AFEED99FDE842F01E
:10018C00DC23ACF0D0E0FFD0E0FED0E0FDAB822071
:10019C00E7101BEB60BAEC2CFCEF33FFEE33FEEDFB
:1001AC0033FD020258E803F830E705C0F075F000A3
:1001BC00EF2FFFEE33FEED33FD40B830E7C280AADF
:1001CC0075F020800E75F010800575F0087D007EAE
:1001DC00007F003392D530D5031202F9EC33401076
:1001EC00EF33FFEE33FEED33FDEC33FCD5F0ED22B7
:0E01FC00E5F0247EA2D513CC92E7CDCEFF22F3
:10020A00EDD2E7CD33EC3392D524814006E4FFFEEC
:10021A00FDFC22FCE4CFCECDCC24E0501174FF804B
:10022A00EDC3CC13CCCD13CDCE13CECF13CF0470E8
:07023A00F030D5DE0202F9ED
:10024100E9D2E7C933E833F892D5EDD2E7CD33EC03
:0702510033FC5002B2D5227C
:10025800EC30E7100FBF000C0EBE00080DBD000407
:100268000BEB6014A2D5EB13FCED92E7FD2274FFB3
:10027800FCFDFEFF22E480F8A2D574FF13FC7D800C
:03028800E480EF20
:030000000204896E
:0C048900787FE4F6D8FD75811B0204D0DA
:10028B00BB010689828A83E0225002E722BBFE0271
:09029B00E32289828A83E49322A4
:1002A400BC000BBE0029EF8DF084FFADF022E4CC3E
:1002B400F875F008EF2FFFEE33FEEC33FCEE9DEC07
:1002C400984005FCEE9DFE0FD5F0E9E4CEFD22ED4D
:1002D400F8F5F0EE8420D21CFEADF075F008EF2F97
:1002E400FFED33FD4007985006D5F0F222C398FD88
:0502F4000FD5F0EA2225
:0E02F900C3E49FFFE49EFEE49DFDE49CFC2216
:10049500020515E493A3F8E493A34003F68001F263
:1004A50008DFF48029E493A3F85407240CC8C33368
:1004B500C4540F4420C8834004F456800146F6DF37
:1004C500E4800B010204081020408090091AE47EA4
:1004D500019360BCA3FF543F30E509541FFEE4932C
:1004E500A360010ECF54C025E060A840B8E493A3F3
:1004F500FAE493A3F8E493A3C8C582C8CAC583CA1E
:10050500F0A3C8C582C8CAC583CADFE9DEE780BED5
:0109200000D6
:00000001FF
